:100000000C944D010C947E010C947E010C947E01A5
:100010000C947E010C947E010C947E010C947E0164
:100020000C947E010C947E010C947E010C947E0154
:100030000C947E010C947E010C947E010C947E0144
:100040000C947E010C94280A0C947E010C947E0181
:100050000C94810A0C947E010C947E010C94F4089B
:100060000C947E010C9468090C943E090C947E015A
:100070000C947E010C947E010C947E010C947E0104
:100080000C94FA090C947E010C947E010C94560A8F
:100090000C947E010C947E010C947E010C94AC0AAD
:1000A0000C947E010C947E010C94CC090C947E017E
:1000B0000C947E010C947E010C947E010C949E099C
:1000C0000C947E010C947E010C947E010C947E01B4
:1000D0000C947E010C947E010C947E010C947E01A4
:1000E0000C947E010C9469060C949E010C94D50529
:1000F0000C94B2050C941C0C0C94A4010C946D028D
:100100000C94DC050C94B3010C94C2050C949A0277
:100110000C945B040C9438060C9403030C943C067A
:100120000C946B020C94A8010C94AC010C94B001DB
:100130000C94D5010C94B9010C94A9020C94C30140
:100140000C94E3010C94BD010C94D1010C94DF01DB
:100150000C94DE010C946C020C9450030C94BD02C0
:100160000C94D9010C94B3050C94C7010C94CB02E8
:100170000C9409060C94CB010000200023002600FB
:1001800029002C002F0032000001000003010601AD
:10019000090100002100240027002A002D00300062
:1001A000330001010000040107010A0100002200E0
:1001B000250028002B002E00310034000201000031
:1001C000050108010B0105050505070508080808D4
:1001D000020202020A0A08080404040401010101DF
:1001E00001010101030303030303030304070707DA
:1001F0000C0C0C0C0C0C0C0C02020202060606067F
:10020000060606060B0B0B0B0B0B0B0B010210204B
:10021000200808102040102040800201020108043C
:1002200002010102040810204080804020100804D0
:100230000201800402018040201008040201080429
:10024000020101020408102040800102040810206D
:10025000408000000A0B02090C0D0E080703040180
:10026000000000000000000000000000000000008E
:10027000000000000000000000000000000012115B
:10028000100000000000000000000000000000005E
:1002900000000000000000001C0C11241FBECFEF66
:1002A000D1E2DEBFCDBF00E00CBF12E0A0E0B2E0C3
:1002B000E2EFFBE200E00BBF02C007900D92A43713
:1002C000B107D9F725E0A4E7B2E001C01D92A8313B
:1002D000B207E1F711E0CDE4D1E000E006C02197DC
:1002E0000109802FFE010E94EF15CC34D10780E078
:1002F0000807A9F70E94C00C0C94F7150C94000095
:100300008150823108F05AC0E82FF0E08827E45786
:10031000FE4F8F4F0C94EF15AC01B0019E01A4016C
:10032000A801DE01B301B901BD01C301C701CB01C1
:10033000D101D501DE01D901DF01E3018091800007
:100340008F77809380000895809180008F7DF9CF12
:1003500080918000877FF5CF84B58F7784BD089525
:1003600084B58F7DFBCF8091B0008F778093B000F4
:1003700008958091B0008F7DF9CF809190008F77A4
:10038000809390000895809190008F7DF9CF8091A7
:100390009000877FF5CF8091A0008F778093A00099
:1003A00008958091A0008F7DF9CF8091A000877F74
:1003B000F5CF809120018F7780932001089580915F
:1003C00020018F7DF9CF80912001877FF5CF1F938A
:1003D000CF93DF93282F30E0F901EE5AFD4F84913F
:1003E000F901E45FFD4FD491F901EA53FE4FC49146
:1003F000CC23A9F0162F81110E948001EC2FF0E090
:10040000EE0FFF1FE455FE4FA591B4918FB7F894FE
:10041000EC91111108C0D095DE23DC938FBFDF91E2
:10042000CF911F910895DE2BF8CFCF93DF9390E00B
:10043000FC01E45FFD4F24918A539E4FFC0184919F
:100440008823D1F090E0880F991FFC01EE56FE4FF3
:10045000A591B491FC01E455FE4FC591D491611171
:100460000EC09FB7F8948C91E22FE0958E238C9369
:100470002881E223E8839FBFDF91CF9108958FB752
:10048000F894EC91E22BEC938FBFF6CF3FB7F89442
:1004900080915D0390915E03A0915F03B091600332
:1004A00026B5A89B05C02F3F19F00196A11DB11DCF
:1004B0003FBFBA2FA92F982F8827BC01CD01620F0B
:1004C000711D811D911D42E0660F771F881F991FC6
:1004D0004A95D1F7089508950895AF92BF92CF92AB
:1004E000DF92EF92FF920F931F93CF93DF936C01F4
:1004F0007B018B01040F151FEB015E01AE18BF08D5
:10050000C017D10759F06991D601ED91FC91019086
:10051000F081E02DC6011995892B79F7C501DF918E
:10052000CF911F910F91FF90EF90DF90CF90BF90F0
:10053000AF900895FC01538D448D252F30E0842F1A
:1005400090E0821B930B541710F0CF9608950197FB
:100550000895FC01918D828D981761F0A28DAE0FE8
:10056000BF2FB11D5D968C91928D9F5F9F73928F6F
:1005700090E008958FEF9FEF0895FC01918D828D9B
:10058000981731F0828DE80FF11D858D90E0089568
:100590008FEF9FEF0895FC01918D228D892F90E0C0
:1005A000805C9F4F821B91098F739927089581EB7F
:1005B00093E00E94CB0221E0892B09F420E0822FF6
:1005C0000895FC01A48DA80FB92FB11DA35ABF4FE8
:1005D0002C91848D90E001968F739927848FA68942
:1005E000B7892C93A089B1898C91837080648C9396
:1005F000938D848D981306C00288F389E02D808145
:100600008F7D80830895EF92FF920F931F93CF9376
:10061000DF93EC0181E0888F9B8D8C8D98131AC03D
:10062000E889F989808185FF15C09FB7F894EE8924
:10063000FF896083E889F989808183708064808381
:100640009FBF81E090E0DF91CF911F910F91FF90CC
:10065000EF900895F62E0B8D10E00F5F1F4F0F7374
:100660001127E02E8C8D8E110CC00FB607FCFACF2F
:10067000E889F989808185FFF5CFCE010E94E102EA
:10068000F1CFEB8DEC0FFD2FF11DE35AFF4FF08200
:100690009FB7F8940B8FEA89FB8980818062CFCF66
:1006A000CF93DF93EC01888D8823B9F0AA89BB89A9
:1006B000E889F9898C9185FD03C0808186FD0DC094
:1006C0000FB607FCF7CF8C9185FFF2CF808185FFB5
:1006D000EDCFCE010E94E102E9CFDF91CF910895E5
:1006E00080E090E0892B29F00E94D70281110E94BE
:1006F000000080E090E0892B49F080E090E0892BB9
:1007000029F00E94000081110E94000080E090E02A
:10071000892B49F080E090E0892B29F00E940000AD
:1007200081110E94000080E090E0892B49F080E078
:1007300090E0892B29F00E94000081110C940000A8
:100740000895AF92BF92CF92DF92EF92FF920F93F4
:100750001F93CF93DF936B017A01EC01CA51DD4FF8
:1007600028813CE0389F8001399F100D1124A09012
:10077000DE04B12C27FF1FC0FB011182108288818B
:100780008F5F888388819801280F311D87FD3A95F6
:10079000F6012A153B051CF488818C30C4F1808158
:1007A0009181049680349C4908F473C0F6018081DD
:1007B0009181049670C088819801280F311D87FDB2
:1007C0003A952A153B05DCF68881A801480F511D92
:1007D00087FD5A95FA01EE0FFF1FE40FF51FE25B4C
:1007E000FB4F808186FFCBCF8881F801E80FF11D98
:1007F00087FDFA95CF01EE0FFF1FE80FF91FE25BAF
:10080000FB4F808160E08F730E94E701B8CF808149
:1008100091812881A801420F511D27FD5A959A0107
:10082000FA01EE0FFF1FE20FF31FE25BFB4F218186
:100830003281820F931FF701918380838881980111
:10084000280F311D87FD3A95F901EE0FFF1FE20FCA
:10085000F31FE25BFB4F808186FF22C08881080F77
:10086000111D87FD1A95F801EE0FFF1FE00FF11F14
:10087000E25BFB4F808161E08F73DF91CF911F912D
:100880000F91FF90EF90DF90CF90BF90AF900C94BE
:10089000E70180E49CE9F701918380838FEF8883EF
:1008A000DF91CF911F910F91FF90EF90DF90CF904C
:1008B000BF90AF90089508952091C302260F33276B
:1008C000331F21323105ECF420918703FC0190E0C5
:1008D00080E0243069F082E00895A091C302219164
:1008E000AC014D555D4FA40FB52FB11D2C93019652
:1008F000861798F38091C302680F6093C30280E06B
:10090000089581E008951092870381E08093860323
:100910001092610361E084E10E94E70161E085E1FA
:100920000E94E701E9EBF0E080818E7F8083808187
:100930008D7F808388E48093B80085E48093BC0039
:100940000895CF93DF9391E09093A2028823B9F0AA
:10095000C091B800D091BA008091BC008A7B80938E
:10096000BC0060E084E10E94E70160E085E10E9454
:10097000E7010E948304D093BA00C093B800DF91CE
:10098000CF9108958F929F92AF92BF92CF92DF92B4
:10099000EF92FF920F931F93CF93DF93D091B00309
:1009A000D13208F0D7C0182FC091AF030E94460281
:1009B0006B017C018091870381116BC082E0809381
:1009C0008703109386038FEF80938503109284032F
:1009D000D0938303AFE8B3E0E3E6F3E080E0D8131D
:1009E00091C01092620380916203CC0FC82BC09318
:1009F000620380916103813009F088C01092610325
:100A00000E9446026B017C01809162038093BB00CF
:100A10008091890390918A03A0918B03B0918C03FC
:100A2000892B8A2B8B2BA1F00E944602009189030F
:100A300010918A0320918B0330918C036C197D09EE
:100A40008E099F09061717072807390708F442C0BF
:100A50008091BC0083FDD8CF85EC8093BC000E94C0
:100A600046026B017C0180918703823009F450C0FB
:100A7000809185038F3F09F46FC080918503803298
:100A800009F46CC080918503803309F469C084E067
:100A900026C08091890390918A03A0918B03B09125
:100AA0008C03892B8A2B8B2B09F484CF0E9446025E
:100AB0008090890390908A03A0908B03B0908C0360
:100AC0006C197D098E099F0986169706A806B90636
:100AD00008F070CF809188030E94A10485E01092F5
:100AE0008E031092B00310928D03DF91CF911F916E
:100AF0000F91FF90EF90DF90CF90BF90AF909F90BD
:100B00008F9008959D9191938F5F69CF85EEA5CFCA
:100B10008091890390918A03A0918B03B0918C03FB
:100B2000892B8A2B8B2B09F49ECF0E9446020091C1
:100B3000890310918A0320918B0330918C036C19E7
:100B40007D098E099F09061717072807390708F03E
:100B50008ACFC0CF81E0C3CF80E0C1CF82E0BFCFDA
:100B600083E0BDCF0895E091EF028091EE02E81797
:100B700030F4F0E0EE57FD4F808190E008958FEF64
:100B80009FEF08959091EF028091EE022FEF3FEFDB
:100B9000981748F4E92FF0E0EE57FD4F208130E040
:100BA0009F5F9093EF02C90108958091EE029091AA
:100BB000EF02891B990B0895CF92DF92EF92FF927B
:100BC0000F931F93CF93DF937C01CB018A01209178
:100BD0008D03222389F0EB016B01C40ED51ECC15C9
:100BE000DD0569F06991D701ED91FC910190F081EB
:100BF000E02DC7011995F3CF642F0E945C04C80152
:100C0000DF91CF911F910F91FF90EF90DF90CF90E8
:100C10000895CF93DF931F92CDB7DEB769832091FC
:100C20008D032223F9F02091B003203258F021E007
:100C300030E0FC013383228390E080E00F90DF916D
:100C4000CF91089580918E03E82FF0E0E157FC4F9B
:100C5000998190838F5F80938E038093B00381E0AE
:100C600090E0ECCF61E0CE0101960E945C04F7CFEA
:100C700090E080E008950895CF93DF9360917C0227
:100C80008BE00E94E701C0911402D091150261E04F
:100C9000C130D10509F060E08CE00E94E70180914D
:100CA0007C028C9F90018D9F300D112480918002D9
:100CB00090918102820F931F909381028093800212
:100CC00080917C0291E0892780937C02DF91CF9113
:100CD0000895CF93DF9360917D0285E00E94E70144
:100CE000C0910A02D0910B0261E0C130D10509F434
:100CF00060E084E00E94E70180917D028C9F90017A
:100D00008D9F300D112480917E0290917F02820F81
:100D1000931F90937F0280937E0280917D0291E0E9
:100D2000892780937D02DF91CF910895FC01019086
:100D30000020E9F73197AF01481B590BBC0181EB4B
:100D400093E00C946D028F929F92AF92BF920F939B
:100D50001F93CF93DF93CDB7DEB7A1970FB6F8946B
:100D6000DEBF0FBECDBF19A2423008F44AE08E01AB
:100D70000F5D1F4F842E912CB12CA12CA501940145
:100D80000E948213E62FB901CA01EA30F4F4E05D53
:100D9000D801EE938D01232B242B252B79F790E09E
:100DA00080E0109719F0CD010E949606A1960FB62B
:100DB000F894DEBF0FBECDBFDF91CF911F910F9191
:100DC000BF90AF909F908F900895E95CE1CF4F92D4
:100DD0005F926F927F928F929F92AF92BF92CF92CB
:100DE000DF92EF92FF920F931F93CF936B017C01E1
:100DF000742EAC019B010E94EA15882399F08AE3C6
:100E000092E0CF911F910F91FF90EF90DF90CF90E4
:100E1000BF90AF909F908F907F906F905F904F901A
:100E20000C94960646015701E894B7F82FEF3FEF70
:100E30004FE75FE7C501B4010E94EA1581110DC0BB
:100E40002FEF3FEF4FE75FE7C501B4010E94201489
:100E500018161CF48EE392E0D4CF2FEF3FEF4FE74C
:100E60005FE4C701B6010E94781518161CF482E4ED
:100E700092E0C7CF2FEF3FEF4FE75FECC701B6011E
:100E80000E94201487FDF3CF20E030E0A901C701C4
:100E9000B6010E94201410E000E087FF0AC06DE256
:100EA00081EB93E00E9403038C01F7FAF094F7F8CA
:100EB000F094C0E060E070E080E09FE37C1641F0D9
:100EC00020E030E040E251E40E942514CF5FF6CFED
:100ED000A70196010E94B4132B013C010E949714B4
:100EE0004B015C014AE00E94A3067C01E00EF11E6A
:100EF000CC23C1F1C501B4010E94C6149B01AC0111
:100F0000C301B2010E94B3134B015C016EE281EB9D
:100F100093E00E940303E80EF91EC15018F120E08F
:100F200030E040E251E4C501B4010E947D152B017F
:100F30003C010E9497144B01B12CA12C4AE0C50141
:100F4000B4010E94A306E80EF91EC501B4010E9477
:100F5000C6149B01AC01C301B2010E94B3134B0143
:100F60005C01DBCFC701CF911F910F91FF90EF90F4
:100F7000DF90CF90BF90AF909F908F907F906F90B9
:100F80005F904F9008954F925F926F927F928F92F1
:100F90009F92AF92BF92FF920F931F93CF93DF93D5
:100FA000062FF72E142F91E090938D0399E29093E2
:100FB000AF0310928E031092B003682F8FED94E070
:100FC0000E94090680E00E94C2040E9446024B0172
:100FD0005C0180918703811165C081E08093870364
:100FE000809386039FEF9093850310928403910F63
:100FF0009093830380936203809162038265809360
:10100000620380916103813009F090C01092610306
:101010000E9446024B015C01809162038093BB00F9
:101020008091890390918A03A0918B03B0918C03E6
:10103000892B8A2B8B2BA1F00E94460240908903BA
:1010400050908A0360908B0370908C036819790923
:101050008A099B09461657066806790608F443C0B4
:101060008091BC0083FDD8CF85EC8093BC000E94AA
:1010700046024B015C0180918703813009F458C01E
:1010800080918403811708F075C080918403E3E6A2
:10109000F3E0A2E8B2E090E0981751F121912D938E
:1010A0009F5FFACF8091890390918A03A0918B036F
:1010B000B0918C03892B8A2B8B2B09F48ACF0E9449
:1010C00046024090890350908A0360908B03709091
:1010D0008C03681979098A099B0946165706680620
:1010E000790608F076CF809188030E94A10480E001
:1010F0001092EF028093EE02B02EC02FDF2D8FED05
:1011000094E00E94C20589938C2F8B198117B8F344
:10111000DF91CF911F910F91FF90BF90AF909F9063
:101120008F907F906F905F904F90089585EE9DCF48
:101130008091890390918A03A0918B03B0918C03D5
:10114000892B8A2B8B2B09F496CF0E944602409064
:10115000890350908A0360908B0370908C03681908
:1011600079098A099B09461657066806790608F028
:1011700082CFB9CF812F8BCF85ED8093BC0080913A
:10118000890390918A03A0918B03B0918C030796F9
:10119000A11DB11D23E0B695A795979587952A9532
:1011A000D1F72091BC0024FD03C01092870308955D
:1011B0004091890350918A0360918B0370918C0355
:1011C000452B462B472B69F30097A105B10541F04C
:1011D0002AE22A95F1F700C00197A109B109E1CFF0
:1011E000809188030C94A1041F920F920FB60F9266
:1011F00011242F933F938F939F93AF93BF9380912D
:10120000590390915A03A0915B03B0915C03309114
:10121000580323E0230F2D3758F50196A11DB11D6A
:10122000209358038093590390935A03A0935B0330
:10123000B0935C0380915D0390915E03A0915F0386
:10124000B09160030196A11DB11D80935D03909341
:101250005E03A0935F03B0936003BF91AF919F9132
:101260008F913F912F910F900FBE0F901F90189567
:1012700026E8230F0296A11DB11DD2CF1F920F9217
:101280000FB60F9211240BB60F922F933F934F93EB
:101290005F936F937F938F939F93AF93BF93EF93DE
:1012A000FF9381EB93E00E94E102FF91EF91BF91E8
:1012B000AF919F918F917F916F915F914F913F91EE
:1012C0002F910F900BBE0F900FBE0F901F9018958F
:1012D0001F920F920FB60F9211240BB60F922F93FD
:1012E0008F939F93EF93FF93E091C103F091C2031B
:1012F0008081E091C703F091C80382FD1DC09081F9
:101300008091CA038F5F8F732091CB03821741F0C6
:10131000E091CA03F0E0EF54FC4F958F8093CA032D
:10132000FF91EF919F918F912F910F900BBE0F9096
:101330000FBE0F901F9018958081F2CF1F920F92D1
:101340000FB60F9211240BB60F922F933F934F932A
:101350005F936F937F938F939F93AF93BF93EF931D
:10136000FF9348E251E064E271E090E080E00E9487
:10137000A103FF91EF91BF91AF919F918F917F91C9
:101380006F915F914F913F912F910F900BBE0F90F6
:101390000FBE0F901F9018951F920F920FB60F92CD
:1013A00011240BB60F922F933F934F935F936F933C
:1013B0007F938F939F93AF93BF93EF93FF9348EAED
:1013C00050E064EA70E083E090E00E94A103FF91A6
:1013D000EF91BF91AF919F918F917F916F915F91AD
:1013E0004F913F912F910F900BBE0F900FBE0F901A
:1013F0001F9018951F920F920FB60F9211240BB6E3
:101400000F922F933F934F935F936F937F938F939D
:101410009F93AF93BF93EF93FF9348E950E064E944
:1014200070E082E090E00E94A103FF91EF91BF91F4
:10143000AF919F918F917F916F915F914F913F916C
:101440002F910F900BBE0F900FBE0F901F9018950D
:101450001F920F920FB60F9211240BB60F922F937B
:101460003F934F935F936F937F938F939F93AF932C
:10147000BF93EF93FF9348E850E064E870E081E0A9
:1014800090E00E94A103FF91EF91BF91AF919F91D6
:101490008F917F916F915F914F913F912F910F901D
:1014A0000BBE0F900FBE0F901F9018951F920F92BA
:1014B0000FB60F9211240BB60F922F933F934F93B9
:1014C0005F936F937F938F939F93AF93BF93EF93AC
:1014D000FF93E091F002F091F1021995FF91EF91E5
:1014E000BF91AF919F918F917F916F915F914F913C
:1014F0003F912F910F900BBE0F900FBE0F901F903A
:1015000018951F920F920FB60F9211240BB60F92DF
:101510002F933F934F935F936F937F938F939F93FB
:10152000AF93BF93EF93FF93E0910002F09101021C
:101530001995FF91EF91BF91AF919F918F917F91FD
:101540006F915F914F913F912F910F900BBE0F9034
:101550000FBE0F901F9018951F920F920FB60F920B
:1015600011240BB60F922F933F934F935F936F937A
:101570007F938F939F93AF93BF93EF93FF9380914C
:10158000B900887F803609F44DC008F040C0883229
:1015900009F4A9C028F5803109F49DC0C8F4882356
:1015A00009F4FBC0883009F496C0FF91EF91BF9118
:1015B000AF919F918F917F916F915F914F913F91EB
:1015C0002F910F900BBE0F900FBE0F901F9018958C
:1015D000883109F488C0803241F78093850314C0B4
:1015E000803409F49DC040F48033B9F38833E9F6C0
:1015F0008093850385ECB0C0803509F485C08835BB
:1016000009F496C0883489F60E94BC08CECF883988
:1016100009F48CC038F5883729F050F4883611F079
:10162000803719F683E0809387031092E50257C054
:10163000883809F47BC0803919F0803809F0B5CFBB
:101640008091E502803208F071C0E091E50281E00E
:101650008E0F8093E5028091BB00F0E0EB53FD4FCD
:1016600080833DC0803B39F0E0F4803A09F479C0D2
:10167000883A09F09ACF84E0809387031092C402DD
:101680001092C302E091EC02F091ED021995809165
:10169000C30281110FC081E08093C3021092A302A4
:1016A00009C0803C09F4A6CF883C09F4A3CF883B4D
:1016B00009F07BCFE091C40281E08E0F8093C402D9
:1016C000F0E0ED55FD4F80818093BB009091C40206
:1016D0008091C30229C0809162038093BB0085EC96
:1016E0008093BC0062CF909184038091830398170C
:1016F00058F5E091840381E08E0F80938403F0E03D
:10170000ED59FC4F8081E9CFE091840381E08E0F99
:10171000809384038091BB00F0E0ED59FC4F8083FF
:1017200090918403809183039817C8F285E8D8CFFD
:10173000E091840381E08E0F809384038091BB004D
:10174000F0E0ED59FC4F80838091860381115CCFDE
:1017500081E08093610384EA8093BC001092870348
:1017600024CF85EC8093BC00109287038091E50222
:10177000803230F4E091E502F0E0EB53FD4F10824F
:101780006091E50270E0E091EA02F091EB0285ECF5
:1017900092E019951092E50208CF1092850334CF9C
:1017A0008F929F92AF92BF92CF92DF92EF92FF9271
:1017B0004B015C010E9446026B017C010E944602C3
:1017C0006C197D098E099F09683E7340810591055A
:1017D000A8F321E0821A9108A108B10888EEC80E8A
:1017E00083E0D81EE11CF11C81149104A104B10412
:1017F00029F7FF90EF90DF90CF90BF90AF909F9030
:101800008F900895CF93C62F91E090938D0399E226
:101810009093AF0310928E031092B003682F8FED58
:1018200094E00E9409066C2F8FED94E00E94090657
:1018300081E0CF910C94C2041092B4031092B303D0
:1018400088EE93E0A0E0B0E08093B5039093B603F8
:10185000A093B703B093B8032AE132E03093B20308
:101860002093B10325EC30E03093BE032093BD03F9
:1018700024EC30E03093C0032093BF0320EC30E031
:101880003093C2032093C10321EC30E03093C403B2
:101890002093C30322EC30E03093C6032093C503AA
:1018A00026EC30E03093C8032093C7031092CA039C
:1018B0001092CB031092CC031092CD031092E2044D
:1018C0001092E1048093E3049093E404A093E50470
:1018D000B093E6048CE292E09093E0048093DF04FE
:1018E0008FED94E0909308058093070589E280933B
:1018F000090510920B0510920A0510920C05109222
:101900001305109214051092150583E090E0909352
:101910001705809316058091DE04803348F591E029
:10192000980F9093DE048093EE0490E0FC01EE0F9C
:10193000FF1FE80FF91FE25BFB4F88EB9BE09283F0
:1019400081838091DE048033B8F491E0980F909306
:10195000DE048093EB0490E0FC01EE0FFF1FE80F24
:10196000F91FE25BFB4F88EB9BE092838183089534
:101970008FEF8093EE04E5CF8FEF8093EB04089513
:10198000CF93DF93CDB7DEB765970FB6F894DEBF80
:101990000FBECDBF789484B5826084BD84B581606C
:1019A00084BD85B5826085BD85B5816085BD80912A
:1019B0006E00816080936E001092810080918100A2
:1019C000826080938100809181008160809381009A
:1019D000809180008160809380008091B10084605C
:1019E0008093B1008091B00081608093B0008091BD
:1019F000910082608093910080919100816080933A
:101A00009100809190008160809390008091A1006E
:101A100082608093A1008091A10081608093A100E9
:101A20008091A00081608093A0008091210182605C
:101A30008093210180912101816080932101809117
:101A4000200181608093200180917A0084608093DE
:101A50007A0080917A00826080937A0080917A0087
:101A6000816080937A0080917A00806880937A0008
:101A70001092C10060E08DE00E9415020FE512E0B7
:101A800079E1E72E72E0F72EE3EDCE2EE1E0DE2ED7
:101A9000F8018491F701A490F601B490BB2071F095
:101AA00081110E948001EB2DF0E0EE0FFF1FE8583E
:101AB000FE4FA591B4918C91A82251F7E091C103FA
:101AC000F091C20382E08083E091BD03F091BE03F8
:101AD0001082E091BF03F091C00310E110831092D7
:101AE000C903E091C503F091C60386E08083E091CD
:101AF000C303F091C403808180618083E091C303BC
:101B0000F091C403808188608083E091C303F091E9
:101B1000C403808180688083E091C303F091C40393
:101B200080818F7D808361E081E10E94150261E008
:101B30008FE00E9415021092EF021092EE021092B6
:101B40008E031092B0030E9483048BE692E0909380
:101B5000ED028093EC028CE692E09093EB0280938E
:101B6000EA0241E0BE016F5F7F4F80E00E94C30741
:101B70008981803A49F086E492E00E9496068EE6DA
:101B800092E00E949606FFCF60E08DE30E94020C77
:101B900060E28FE30E94020C6CEB72E080E090E068
:101BA0000E94D00B60E08BE30E94020C6CE08DE39E
:101BB0000E94020C64E670E080E090E00E94D00B8E
:101BC00061E08CE00E94150261E08BE00E9415024A
:101BD00061E084E00E94150261E085E00E94150248
:101BE000109381001092800081E08093030320E431
:101BF0003FE1309302032093010330938700209349
:101C0000860091E1909381004CE356E050930102ED
:101C10004093000280936F00109381001093910015
:101C200010929000809300033093FF022093FE02F5
:101C300030939700209396009093910029E636E028
:101C40003093F1022093F002809371001093910081
:101C500061E081E10E94E7019E01295F3F4F3887E3
:101C60002F8322242A94322C0E9446026A8B7B8B7B
:101C70008C8B9D8B80912C0381110DC00E9446029C
:101C8000609328037093290380932A0390932B0376
:101C900031E030932C030E944602009128031091FA
:101CA000290320912A0330912B03601B710B820BB7
:101CB000930B0E94C61420E034E244E759E40E94EA
:101CC00025144B015C018092240390922503A0927D
:101CD0002603B09227030E94460260932803709364
:101CE000290380932A0390932B0346E0BE016F5F84
:101CF0007F4F84E10E94C307AE014F5F5F4F7A01BF
:101D00008CE093E09A8789876C018A01D80111964B
:101D10006C9111978C91762F682F072E000C880BF1
:101D2000990B0E94C81420E030E040E85DE30E9477
:101D30007D15F60161937193819391936F010E5F0D
:101D40001F4F2F8138852017310701F746E0BE016C
:101D50006F5F7F4F8AE10E94C30704E513E0D7015C
:101D600011966C9111978C91762F682F072E000C8D
:101D7000880B990B0E94C81420E030E040E85DE336
:101D80000E947D15F80192938293729362938F0162
:101D9000F2E0EF0EF11C28E433E020173107F9F6EA
:101DA00008E113E0D8014D905D906D907D908D011C
:101DB000E985FA852191319141915191FA87E9871D
:101DC0007D01F4E0EF1AF108C501B4010E947D1510
:101DD000A30192010E94B413D7016D937D938D935B
:101DE0009C931397E4E2F3E0E017F107D9F68091B2
:101DF000200390912103A0912203B09123038093AB
:101E0000500390935103A0935203B0935303C09097
:101E10005403D0905503E0905603F090570320915F
:101E2000440330914503409146035091470329876D
:101E30003A874B875C876091480370914903809192
:101E40004A0390914B030E94B3134B015C0120E0C5
:101E500030E04AE755E40E947D152AE037ED43E281
:101E60005CE30E947D152091380330913903409145
:101E70003A0350913B030E94B4132B013C01409262
:101E800038035092390360923A0370923B0320E08A
:101E900030E048E454E4C501B4010E947D15A70177
:101EA00096010E94B413A30192010E94B4132AE088
:101EB00037ED43E25CE30E947D1520913C033091B5
:101EC0003D0340913E0350913F030E94B4136B01C8
:101ED0007C01C0923C03D0923D03E0923E03F0921D
:101EE0003F0320E030E040E252E4C501B4010E942B
:101EF0007D15A70196010E94B4132AE037ED43E255
:101F00005CE30E947D1529853A854B855C850E949E
:101F1000B4139B01AC0120934403309345034093D9
:101F200046035093470364E17EEA87E49FEB0E94F7
:101F3000B31320E030E040EF51E40E947D154B01E7
:101F40005C0120E030E040EF51EC0E94201487FD5E
:101F500059C120E030E040EF51E4C501B4010E94D6
:101F60007815181634F4812C912C40EFA42E41E4FE
:101F7000B42E8092400390924103A0924203B0920B
:101F80004303A7019601C501B4010E94B31320E0E9
:101F900030E04FE253E40E947D15A30192010E94BC
:101FA000B313609354037093550380935603909337
:101FB00057032AE037ED43E25CE30E947D159B0165
:101FC000AC01609134037091350380913603909198
:101FD00037030E94B41360933403709335038093E6
:101FE00036039093370342E0C701B6010E94E7062B
:101FF00081E792E00E949606609140037091410350
:10200000809142039091430342E00E94E70681E7FA
:1020100092E00E949606609154037091550380915E
:1020200056039091570342E00E94E70681E792E051
:102030000E9496068EE692E00E949606C0903403B7
:10204000D0903503E0903603F090370320E030E87D
:102050004BEB54ECB601C7010E94201487FDD9C098
:1020600020E030E84BEB54E4B601C7010E9478153C
:1020700018160CF4DBC0C9861D2D0E2DFD86809030
:10208000080390900903A0900A03B0900B03A501E8
:102090009401B601C7010E94B3136B017C0120E0DB
:1020A00030E0A9010E94781518160CF4F8C220E05F
:1020B00030E04FE253ECC701B6010E942014260124
:1020C000370177FA709477F8709487FF06C0412C37
:1020D000512CAFE26A2EA3E47A2E20E030E0A90171
:1020E000C701B6010E9478156FEF7FEF87FD02C030
:1020F00061E070E0072E000C880B990B0E94C81459
:10210000A30192010E947D15A50194010E94B413C0
:102110006B017C01C0920803D0920903E0920A038C
:10212000F0920B038091040390910503A0910603A4
:10213000B09107038E879F87A88BB98B9C01AD0157
:102140006985712F802F9D850E94B3134B015C011F
:1021500020E030E0A9010E94781518160CF4B3C2F3
:1021600020E030E04FE253ECC501B4010E9420149E
:102170002401350177FA709477F8709487FF06C0D0
:10218000412C512CFFE26F2EF3E47F2E20E030E053
:10219000A901C501B4010E9478156FEF7FEF87FD9B
:1021A00002C061E070E0072E000C880B990B0E94C2
:1021B000C814A30192010E947D152E853F85488990
:1021C00059890E94B41360930403709305038093AC
:1021D00006039093070320E030E0A901C701B60190
:1021E0000E94781518167CF520E030E040EE5DE3A3
:1021F000C701B6010E94781587FF2FC0B0E1B093E8
:102200008100AAC0812C912C30EFA32E31ECB32E8B
:10221000B0CEC12C80E8D82E9BEBE92E24ECF22E18
:10222000198610E80BEB34EC3D8729CFC12CB0E8C0
:10223000DB2E1BEBE12E04E4F02E198610E80BEBED
:1022400044E44D871CCF20E030E040EE5DEBC70159
:10225000B6010E94201418168CF220E030E0A9018B
:10226000C701B6010E94781518160CF0A5C081E0D0
:1022700090E0909315028093140220E030E0A901D1
:10228000C701B6010E947815181624F0F7FAF094E9
:10229000F7F8F094A701960160E87FE985ED99E4ED
:1022A0000E94251420E030E040E05FE30E947D15AD
:1022B00020E030E040E85DE30E947D156B017C0189
:1022C000C0921002D0921102E0921202F092130218
:1022D00020910C0230910D0240910E0250910F029C
:1022E0000E9420148823C1F1C701B6010E949714EF
:1022F0009B01AC01A0EAB0E00E9477136B017C0166
:1023000024E130E040E050E00E94821321153105C5
:1023100091E04907510508F052C0A1E0A0930303E2
:1023200030930203209301038091010390910203F3
:10233000909387008093860080910303806180934F
:10234000810010928100109285001092840080918B
:1023500003038061809381008091100290911102AB
:10236000A0911202B091130280930C0290930D027F
:10237000A0930E02B0930F02C0900403D090050307
:10238000E0900603F090070320E030E0A901C701C8
:10239000B6010E94781518160CF05AC020E030E003
:1023A00040EE5DE3C701B6010E94781587FF5BC070
:1023B00020E120939100E4C08FEF9FEF5ACF2115C9
:1023C0003105B8E04B07510560F482E080930303C8
:1023D000C701B60120EA30E040E050E00E948213DD
:1023E0009FCF21153105E0E44E07510550F483E0FD
:1023F00080930303C701B60120E035E040E050E0E0
:10240000EDCF211531054105F1E05F0750F484E07F
:1024100080930303C701B60120E034E140E050E0BF
:10242000DDCF211531054105544050F495E09093DE
:102430000303C701B60120E030E540E050E0CECF15
:10244000A5E0A093030330920203209201036CCF16
:1024500020E030E040EE5DEBC701B6010E942014A1
:1024600018160CF4A5CF20E030E0A901C701B60191
:102470000E94781518160CF05AC081E090E09093F5
:102480000B0280930A0220E030E0A901C701B601E7
:102490000E947815181624F0F7FAF094F7F8F094E3
:1024A000A701960160E87FE985ED99E40E94251473
:1024B00020E030E040E05FE30E947D1520E030E066
:1024C00040E85DE30E947D156B017C01C09206022D
:1024D000D0920702E0920802F092090220910202D3
:1024E0003091030240910402509105020E94201491
:1024F000882309F445C0C701B6010E949714AB01B7
:10250000BC01DC01CA01E3E0880F991FAA1FBB1FB1
:10251000EA95D1F70097E1E0AE07B10558F4F1E094
:10252000F09300039093FF028093FE0211C08FEF9F
:102530009FEFA5CF009728E0A207B10508F07AC069
:1025400082E0809300037F715093FF024093FE026C
:102550008091FE029091FF029093970080939600E5
:1025600080910003806180939100109291001092FD
:1025700095001092940080910003806180939100F7
:102580008091060290910702A0910802B091090281
:102590008093020290930302A0930402B093050279
:1025A0008091F60281110DC00E9446026093F202F2
:1025B0007093F3028093F4029093F50231E030932C
:1025C000F6020E9446020091F2021091F30220915D
:1025D000F4023091F502601B710B820B930B60319A
:1025E00077428105910568F30E9446026093F202EA
:1025F0007093F3028093F4029093F5020E944602D6
:102600002A893B894C895D89621B730B840B950B6E
:102610000E94C61420E030E04AE754E40E942514EA
:1026200042E00E94E7068EE692E00E9496060E9433
:1026300070031ACB009730E4A307B10558F423E0E8
:102640002093000346E0B695A795979587954A9500
:10265000D1F768CF0097A10541E0B40740F424E02A
:1026600020930003892F9A2FAB2FBB275BCF0097B6
:10267000A10554E0B50758F4E5E0E09300032AE033
:10268000B695A795979587952A95D1F74BCFF5E005
:10269000F09300033092FF022092FE0259CF20E017
:1026A00030E04FE253E4C701B6010E947815412C97
:1026B000512C9FE2692E93E4792E18160CF418CD54
:1026C0002601370115CD20E030E04FE253E4C5018B
:1026D000B4010E9478152401350118160CF061CD63
:1026E000412C512C8FE2682E83E4782E5ACD0E9423
:1026F000A413A59F900DB49F900DA49F800D911DD4
:1027000011240895A1E21A2EAA1BBB1BFD010DC0C6
:10271000AA1FBB1FEE1FFF1FA217B307E407F50791
:1027200020F0A21BB30BE40BF50B661F771F881F6D
:10273000991F1A9469F760957095809590959B0103
:10274000AC01BD01CF010895A29FB001B39FC001AC
:10275000A39F700D811D1124911DB29F700D811DCD
:102760001124911D08955058BB27AA270E94CB130E
:102770000C943E150E94301538F00E94371520F059
:1027800039F49F3F19F426F40C942D150EF4E095BE
:10279000E7FB0C942715E92F0E944F1558F3BA1741
:1027A000620773078407950720F079F4A6F50C9467
:1027B00071150EF4E0950B2EBA2FA02D0B01B90167
:1027C00090010C01CA01A0011124FF27591B99F0A7
:1027D000593F50F4503E68F11A16F040A22F232FB3
:1027E000342F4427585FF3CF469537952795A79503
:1027F000F0405395C9F77EF41F16BA0B620B730BAA
:10280000840BBAF09150A1F0FF0FBB1F661F771F1A
:10281000881FC2F70EC0BA0F621F731F841F48F4CF
:10282000879577956795B795F7959E3F08F0B0CF58
:102830009395880F08F09927EE0F9795879508953F
:102840000E94031508F481E008950E9439140C9445
:102850003E150E94371558F00E94301540F029F4BB
:102860005F3F29F00C94271551110C9472150C94AC
:102870002D150E944F1568F39923B1F3552391F359
:10288000951B550BBB27AA2762177307840738F0DF
:102890009F5F5F4F220F331F441FAA1FA9F335D03C
:1028A0000E2E3AF0E0E832D091505040E695001CF0
:1028B000CAF72BD0FE2F29D0660F771F881FBB1FAA
:1028C000261737074807AB07B0E809F0BB0B802D88
:1028D000BF01FF2793585F4F3AF09E3F510578F0B4
:1028E0000C9427150C9472155F3FE4F3983ED4F3D3
:1028F000869577956795B795F7959F5FC9F7880F88
:10290000911D9695879597F90895E1E0660F771FD9
:10291000881FBB1F621773078407BA0720F0621B6A
:10292000730B840BBA0BEE1F88F7E09508950E9495
:10293000571588F09F5798F0B92F9927B751B0F0E5
:10294000E1F0660F771F881F991F1AF0BA95C9F733
:1029500014C0B13091F00E947115B1E008950C944B
:102960007115672F782F8827B85F39F0B93FCCF3FE
:10297000869577956795B395D9F73EF490958095B0
:10298000709561957F4F8F4F9F4F0895E89409C0D0
:1029900097FB3EF490958095709561957F4F8F4F92
:1029A0009F4F9923A9F0F92F96E9BB279395F695A8
:1029B000879577956795B795F111F8CFFAF4BB0F26
:1029C00011F460FF1BC06F5F7F4F8F4F9F4F16C08A
:1029D000882311F096E911C0772321F09EE8872F14
:1029E000762F05C0662371F096E8862F70E060E0D0
:1029F0002AF09A95660F771F881FDAF7880F969549
:102A0000879597F90895990F0008550FAA0BE0E8EC
:102A1000FEEF16161706E807F907C0F012161306A0
:102A2000E407F50798F0621B730B840B950B39F4E0
:102A30000A2661F0232B242B252B21F408950A2646
:102A400009F4A140A6958FEF811D811D089597F986
:102A50009F6780E870E060E008959FEF80EC089544
:102A600000240A941616170618060906089500246D
:102A70000A9412161306140605060895092E0394E7
:102A8000000C11F4882352F0BB0F40F4BF2B11F45B
:102A900060FF04C06F5F7F4F8F4F9F4F089557FDBA
:102AA0009058440F551F59F05F3F71F04795880FBC
:102AB00097FB991F61F09F3F79F087950895121653
:102AC00013061406551FF2CF4695F1DF08C01616FF
:102AD00017061806991FF1CF8695710561050894B0
:102AE0000895E894BB2766277727CB0197F90895C7
:102AF0000E94031508F48FEF08950E9490150C941E
:102B00003E150E94301538F00E94371520F09523AD
:102B100011F00C9427150C942D1511240C9472159A
:102B20000E944F1570F3959FC1F3950F50E0551F0C
:102B3000629FF001729FBB27F00DB11D639FAA2712
:102B4000F00DB11DAA1F649F6627B00DA11D661F61
:102B5000829F2227B00DA11D621F739FB00DA11D82
:102B6000621F839FA00D611D221F749F3327A00D3C
:102B7000611D231F849F600D211D822F762F6A2FD8
:102B800011249F5750409AF0F1F088234AF0EE0F3D
:102B9000FF1FBB1F661F771F881F91505040A9F76A
:102BA0009E3F510580F00C9427150C9472155F3FE1
:102BB000E4F3983ED4F3869577956795B795F795A6
:102BC000E7959F5FC1F7FE2B880F911D969587951E
:102BD00097F908950E940315880B990B0895EE0F3D
:102BE000FF1F881F8BBF0790F691E02D1994F89472
:022BF000FFCF15
:102BF2005B040000803F0000803F01000000803F36
:102C02000000803F01000000000003036D029A02F1
:102C12005003CB02A902BD02000000000906DC0538
:102C22003806B205D505C205B3056E616E00696E40
:102C320066006F766600D09ED188D0B8D0B1D0BA87
:102C4200D0B03A20424E4F30353520D0BDD0B520DD
:102C5200D0BDD0B0D0B9D0B4D0B5D0BD21000D0A0E
:042C62000009000065
:00000001FF
